{
  "_format": "hh-sol-artifact-1",
  "contractName": "BusTicketBooking",
  "sourceName": "contracts/BusTicketBooking.sol",
  "abi": [
    {
      "inputs": [
        {
          "internalType": "uint256",
          "name": "_totalSeats",
          "type": "uint256"
        },
        {
          "internalType": "uint256",
          "name": "_pricePerSeat",
          "type": "uint256"
        }
      ],
      "stateMutability": "nonpayable",
      "type": "constructor"
    },
    {
      "anonymous": false,
      "inputs": [
        {
          "indexed": true,
          "internalType": "address",
          "name": "passenger",
          "type": "address"
        },
        {
          "indexed": false,
          "internalType": "uint256",
          "name": "seatNumber",
          "type": "uint256"
        }
      ],
      "name": "SeatBooked",
      "type": "event"
    },
    {
      "inputs": [],
      "name": "availableSeats",
      "outputs": [
        {
          "internalType": "uint256",
          "name": "",
          "type": "uint256"
        }
      ],
      "stateMutability": "view",
      "type": "function"
    },
    {
      "inputs": [
        {
          "internalType": "uint256",
          "name": "_seatNumber",
          "type": "uint256"
        }
      ],
      "name": "bookSeat",
      "outputs": [],
      "stateMutability": "payable",
      "type": "function"
    },
    {
      "inputs": [
        {
          "internalType": "address",
          "name": "",
          "type": "address"
        }
      ],
      "name": "bookedSeats",
      "outputs": [
        {
          "internalType": "uint256",
          "name": "",
          "type": "uint256"
        }
      ],
      "stateMutability": "view",
      "type": "function"
    },
    {
      "inputs": [],
      "name": "checkAvailability",
      "outputs": [
        {
          "internalType": "uint256",
          "name": "",
          "type": "uint256"
        }
      ],
      "stateMutability": "view",
      "type": "function"
    },
    {
      "inputs": [
        {
          "internalType": "address",
          "name": "_passenger",
          "type": "address"
        }
      ],
      "name": "getBookingDetails",
      "outputs": [
        {
          "internalType": "uint256",
          "name": "seatNumber",
          "type": "uint256"
        }
      ],
      "stateMutability": "view",
      "type": "function"
    },
    {
      "inputs": [],
      "name": "owner",
      "outputs": [
        {
          "internalType": "address",
          "name": "",
          "type": "address"
        }
      ],
      "stateMutability": "view",
      "type": "function"
    },
    {
      "inputs": [],
      "name": "pricePerSeat",
      "outputs": [
        {
          "internalType": "uint256",
          "name": "",
          "type": "uint256"
        }
      ],
      "stateMutability": "view",
      "type": "function"
    },
    {
      "inputs": [],
      "name": "totalSeats",
      "outputs": [
        {
          "internalType": "uint256",
          "name": "",
          "type": "uint256"
        }
      ],
      "stateMutability": "view",
      "type": "function"
    },
    {
      "inputs": [],
      "name": "withdrawFunds",
      "outputs": [],
      "stateMutability": "nonpayable",
      "type": "function"
    }
  ],
  "bytecode": "0x608060405234801561001057600080fd5b506040516109fb3803806109fb833981810160405281019061003291906100a3565b336000806101000a81548173ffffffffffffffffffffffffffffffffffffffff021916908373ffffffffffffffffffffffffffffffffffffffff1602179055508160018190555081600281905550806003819055505050610100565b60008151905061009d816100e9565b92915050565b600080604083850312156100b657600080fd5b60006100c48582860161008e565b92505060206100d58582860161008e565b9150509250929050565b6000819050919050565b6100f2816100df565b81146100fd57600080fd5b50565b6108ec8061010f6000396000f3fe6080604052600436106100865760003560e01c806384e9f7c91161005957806384e9f7c9146101355780638da5cb5b146101515780639cc4254e1461017c578063bd71a63e146101a7578063ed936799146101d257610086565b80631ffc615e1461008b57806324600fc3146100b65780634d8b8862146100cd578063537d22bd1461010a575b600080fd5b34801561009757600080fd5b506100a061020f565b6040516100ad91906107c7565b60405180910390f35b3480156100c257600080fd5b506100cb610215565b005b3480156100d957600080fd5b506100f460048036038101906100ef9190610596565b61030c565b60405161010191906107c7565b60405180910390f35b34801561011657600080fd5b5061011f610355565b60405161012c91906107c7565b60405180910390f35b61014f600480360381019061014a91906105bf565b61035f565b005b34801561015d57600080fd5b50610166610524565b604051610173919061072c565b60405180910390f35b34801561018857600080fd5b50610191610548565b60405161019e91906107c7565b60405180910390f35b3480156101b357600080fd5b506101bc61054e565b6040516101c991906107c7565b60405180910390f35b3480156101de57600080fd5b506101f960048036038101906101f49190610596565b610554565b60405161020691906107c7565b60405180910390f35b60015481565b60008054906101000a900473ffffffffffffffffffffffffffffffffffffffff1673ffffffffffffffffffffffffffffffffffffffff163373ffffffffffffffffffffffffffffffffffffffff16146102a3576040517f08c379a000000000000000000000000000000000000000000000000000000000815260040161029a90610747565b60405180910390fd5b60008054906101000a900473ffffffffffffffffffffffffffffffffffffffff1673ffffffffffffffffffffffffffffffffffffffff166108fc479081150290604051600060405180830381858888f19350505050158015610309573d6000803e3d6000fd5b50565b6000600460008373ffffffffffffffffffffffffffffffffffffffff1673ffffffffffffffffffffffffffffffffffffffff168152602001908152602001600020549050919050565b6000600254905090565b60008111801561037157506001548111155b6103b0576040517f08c379a00000000000000000000000000000000000000000000000000000000081526004016103a790610767565b60405180910390fd5b6000600254116103f5576040517f08c379a00000000000000000000000000000000000000000000000000000000081526004016103ec906107a7565b60405180910390fd5b6000600460003373ffffffffffffffffffffffffffffffffffffffff1673ffffffffffffffffffffffffffffffffffffffff1681526020019081526020016000205414610477576040517f08c379a000000000000000000000000000000000000000000000000000000000815260040161046e90610787565b60405180910390fd5b80600460003373ffffffffffffffffffffffffffffffffffffffff1673ffffffffffffffffffffffffffffffffffffffff16815260200190815260200160002081905550600260008154809291906104ce9061082f565b91905055503373ffffffffffffffffffffffffffffffffffffffff167fcc55996855f6ac84fc7f1b024ca365749ceb76dd8d933bb8d5a6573ffc47ac1a8260405161051991906107c7565b60405180910390a250565b60008054906101000a900473ffffffffffffffffffffffffffffffffffffffff1681565b60025481565b60035481565b60046020528060005260406000206000915090505481565b60008135905061057b81610888565b92915050565b6000813590506105908161089f565b92915050565b6000602082840312156105a857600080fd5b60006105b68482850161056c565b91505092915050565b6000602082840312156105d157600080fd5b60006105df84828501610581565b91505092915050565b6105f1816107f3565b82525050565b60006106046026836107e2565b91507f4f6e6c7920746865206f776e65722063616e20706572666f726d20746869732060008301527f616374696f6e00000000000000000000000000000000000000000000000000006020830152604082019050919050565b600061066a6013836107e2565b91507f496e76616c69642073656174206e756d626572000000000000000000000000006000830152602082019050919050565b60006106aa601e836107e2565b91507f596f75206861766520616c726561647920626f6f6b65642061207365617400006000830152602082019050919050565b60006106ea6012836107e2565b91507f4e6f20617661696c61626c6520736561747300000000000000000000000000006000830152602082019050919050565b61072681610825565b82525050565b600060208201905061074160008301846105e8565b92915050565b60006020820190508181036000830152610760816105f7565b9050919050565b600060208201905081810360008301526107808161065d565b9050919050565b600060208201905081810360008301526107a08161069d565b9050919050565b600060208201905081810360008301526107c0816106dd565b9050919050565b60006020820190506107dc600083018461071d565b92915050565b600082825260208201905092915050565b60006107fe82610805565b9050919050565b600073ffffffffffffffffffffffffffffffffffffffff82169050919050565b6000819050919050565b600061083a82610825565b9150600082141561084e5761084d610859565b5b600182039050919050565b7f4e487b7100000000000000000000000000000000000000000000000000000000600052601160045260246000fd5b610891816107f3565b811461089c57600080fd5b50565b6108a881610825565b81146108b357600080fd5b5056fea26469706673582212204f1cdfd0633df4a0b66e739fdb0456503366ac6e63780ce7500d6761ffd6ac8b64736f6c63430008000033",
  "linkReferences": {},
  "deployedLinkReferences": {}
}